:100000000C945C000C946E000C946E000C946E00CA
:100010000C946E000C946E000C946E000C946E00A8
:100020000C946E000C946E000C946E000C946E0098
:100030000C946E000C946E000C946E000C946E0088
:100040000C9491010C946E000C946E000C946E0054
:100050000C946E000C946E000C946E000C946E0068
:100060000C946E000C946E00000000080002010069
:100070000003040700000000000000000000000072
:10008000250028002B0000000000240027002A0083
:10009000040404040404040402020202020203032E
:1000A0000303030301020408102040800102040836
:1000B000102001020408102011241FBECFEFD8E049
:1000C000DEBFCDBF21E0A0E0B1E001C01D92AF30A6
:1000D000B207E1F70E94DB010C94C5020C9400000A
:1000E00090E0FC01EC55FF4F249180579F4FFC019D
:1000F0008491882399F090E0880F991FFC01EA57BA
:10010000FF4FA591B491FC01E458FF4F8591949164
:100110008FB7F894EC91E22BEC938FBF089590E0A9
:10012000FC01E859FF4F2491FC01EC55FF4F34913D
:10013000FC01E057FF4FE491EE23C9F0222339F090
:10014000233001F1A8F4213019F1223029F1F0E037
:10015000EE0FFF1FE458FF4FA591B4918FB7F894AD
:10016000EC91611126C030953E233C938FBF0895DA
:100170002730A9F02830C9F0243049F78091800059
:100180008F7D03C0809180008F7780938000DFCFC8
:1001900084B58F7784BDDBCF84B58F7DFBCF809115
:1001A000B0008F778093B000D2CF8091B0008F7D68
:1001B000F9CF3E2BDACF1F93CF93DF93182FEB01AC
:1001C0000E947000209739F460E0812FDF91CF9179
:1001D0001F910C948F00CF3FD10511F461E0F5CF52
:1001E000E12FF0E0E859FF4FE491E33031F140F4C2
:1001F000E130B1F0E230E1F0C038D1057CF7E4CF76
:10020000E73029F1E83059F1E430B1F7809180000E
:10021000806280938000D0938B00C0938A0004C0DA
:1002200084B5806884BDC7BDDF91CF911F910895CB
:1002300084B5806284BDC8BDF7CF8091800080689E
:1002400080938000D0938900C0938800EDCF809187
:10025000B00080688093B000C093B300E5CF809178
:10026000B00080628093B000C093B400DDCF3FB790
:10027000F89480910B0190910C01A0910D01B09127
:100280000E0126B5A89B05C02F3F19F00196A11DB0
:10029000B11D3FBFBA2FA92F982F8827BC01CD01D0
:1002A000620F711D811D911D42E0660F771F881F2F
:1002B000991F4A95D1F708958F929F92AF92BF925E
:1002C000CF92DF92EF92FF920E9437014B015C01C7
:1002D0008AE0C82ED12CE12CF12C0E94370168193C
:1002E00079098A099B09683E734081059105A8F345
:1002F00021E0C21AD108E108F10888EE880E83E0F7
:10030000981EA11CB11CC114D104E104F10429F709
:10031000FF90EF90DF90CF90BF90AF909F908F9025
:1003200008951F920F920FB60F9211242F933F93AF
:100330008F939F93AF93BF93809107019091080192
:10034000A0910901B0910A013091060123E0230F29
:100350002D3758F50196A11DB11D209306018093FC
:10036000070190930801A0930901B0930A018091BD
:100370000B0190910C01A0910D01B0910E0101961D
:10038000A11DB11D80930B0190930C01A0930D0151
:10039000B0930E01BF91AF919F918F913F912F919B
:1003A0000F900FBE0F901F90189526E8230F02960E
:1003B000A11DB11DD2CF789484B5826084BD84B56F
:1003C000816084BD85B5826085BD85B5816085BD50
:1003D00080916E00816080936E0010928100809108
:1003E0008100826080938100809181008160809390
:1003F0008100809180008160809380008091B100B5
:1004000084608093B1008091B00081608093B000DF
:1004100080917A00846080937A0080917A00826073
:1004200080937A0080917A00816080937A00809135
:100430007A00806880937A001092C10086E00E9462
:10044000700085E00E94700083E00E94700061E00F
:1004500086E00E948F0060E085E00E948F0060E0EF
:1004600083E00E948F000FEF10E030E0E32E30E0D9
:10047000F32E1093050100930401109203011092D2
:1004800002011092010110920001CC24CA94D12CD7
:10049000609104017091050161507109709305012B
:1004A00060930401C0910201D09103012196D09381
:1004B0000301C093020186E00E94DB00BE0185E0DB
:1004C0000E94DB000E945C0181E0C81AD10801F79C
:1004D0001092050110920401109303010093020190
:1004E000CC24CA94D12C6091020170910301615017
:1004F00071097093030160930201C0910001D091D2
:1005000001012196D0930101C093000185E00E9472
:10051000DB00BE0183E00E94DB000E945C0181E001
:10052000C81AD10801F7109203011092020110932A
:10053000010100930001CC24CA94D12C60910001E8
:100540007091010161507109709301016093000184
:10055000C0910401D09105012196D0930501C0936B
:10056000040183E00E94DB00BE0186E00E94DB0004
:100570000E945C0181E0C81AD10801F7E114F1047E
:0E05800009F477CF0E94000074CFF894FFCFEB
:00000001FF
